:020000040800F2
:1000000000040020C1010008D10E0008D10E000834
:10001000D10E0008D10E0008D10E0008D10E000844
:10002000D10E0008D10E0008D10E0008C102000850
:10003000D10E0008D10E0008D10E0008D10E000824
:10004000D10E0008D10E0008D10E0008D10E000814
:10005000D10E0008D10E0008D10E0008D10E000804
:10006000D10E0008D10E0008D10E0008D1070008FB
:10007000A1070008710700084107000811070008E0
:10008000E1060008B1060008B10C0008D10E000816
:10009000D10E0008D10E0008D10E0008D10E0008C4
:1000A000D10E0008D10E0008D10E0008D10E0008B4
:1000B000E10F0008D10E0008A10F0008D10E0008C2
:1000C000D10E0008D10E0008D10E0008D10E000894
:1000D000D10E0008D10E000881100008D10E0008D2
:1000E000D10E0008D10E0008D10E0008D10E000874
:1000F000D10E0008D10E0008D10E000881060008BC
:10010000D10E0008D10E0008D10E0008D10E000853
:10011000D10E0008D10E0008D10E0008D10E000843
:100120005106000821060008F1050008C105000875
:1001300091050008D10E0008D10E0008D10E00086C
:10014000D10E0008D10E0008D10E0008D10E000813
:10015000610500083105000801050008D10E0008FE
:10016000D10E0008D10E0008D10E0008D10E0008F3
:10017000D10E0008D10E0008D10E0008D10E0008E3
:10018000D10E0008D10E0008D10E0008D10E0008D3
:10019000D10E0008D10E0008D10E0008D10E0008C3
:1001A000D10E0008D10E0008D10E0008D10E0008B3
:1001B000D10E0008D10E0008D10E0008D10E0008A3
:1001C00072B6264880F3098825484EF60851CEF2CB
:1001D00000010860022080F31488BFF36F8F00F0E5
:1001E000BFFE01F005FC4FF055301E491E4A9142FA
:1001F0003CBF41F8040BFAE71C49184A91423CBF46
:1002000041F8040BFAE71A491A4A1B4B9A423EBFBF
:1002100051F8040B42F8040BF8E700201749184A7C
:1002200091423CBF41F8040BFAE700F059FE00F0A0
:100230008FFE144C144DAC4203DA54F8041B88476B
:10024000F9E700F0FDFF114C114DAC4203DA54F810
:10025000041B8847F9E700F073BE00000008002087
:10026000000000080000002000040020000400201E
:100270003C210008000800200008002000080020A1
:10028000C00A0020C0010008C0010008C001000829
:10029000C00100082DE9F04FC1F80CD0C3689D469D
:1002A000BDE8F08F002383F311882846A047002083
:1002B00000F0E6FD00F0CCFA00DFFEE700000000F1
:1002C00080B400AFEFF30983203383F30988002360
:1002D00083F31188BD4680BC704700BF000000005A
:1002E00070B4202383F311880B4E0C4A33681568D1
:1002F000013B4C420B444A1E111803EA0400214002
:100300002B1A99429ABF091831600020002383F309
:10031000118870BC704700BF400A00203C0A0020D2
:10032000202383F3118890F82030072B0ED8DFE8C4
:1003300003F0280D0D2408040D08426A9368013368
:10034000936090E80C001A600268536010B40022B9
:100350004FF0FF3481680D4B446280F820201B6809
:100360009A688A42FBD25A6842600360002110609A
:10037000586081F3118810BC7047436A00221A60EC
:10038000E4E7002383F31188704700BF480800208A
:10039000FEE700BF000000000000000000000000B9
:1003A000084B99691A6810B481F820001068186029
:1003B0000124436082F82040104610BC9A61FFF788
:1003C00069BF00BF480800200000000000000000D6
:1003D0002DE9F04F02F0030AC2F38008C2F3C10C0A
:1003E000C2F3411ED146C2F3C31200274FF00F0BD8
:1003F0000FE0036A23EA040425430562490839D063
:100400004FEA48084FEA8C0C4FEA8E0E4FEA8909F2
:100410000137CB07F2D543680124BC4023EA04032B
:1004200043EA0803436003257B00846805FA03F36D
:10043000DB431C4044EA0C048460C56807F00704F1
:100440001D4045EA0E05A400BAF1020FC56002FA8C
:1004500004F50BFA04F40FD00668334043EA0903AD
:10046000072F0360C5D9436A23EA040425434908DA
:100470004562C5D1BDE8F08F072F0AD8066A26EA83
:100480000404254305620468234043EA090303602A
:10049000B4E7466A26EA040425434562F3E700BF51
:1004A000202383F31188114B5B6813F4006302D19E
:1004B00083F31188704780B400AFEFF309834FF0E6
:1004C000807243F8042CA3F1200282F30988084AC1
:1004D000116892698968926891428CBF054A064A00
:1004E00043F8082CBD4680BC704700BF00ED00E01B
:1004F00048080020B5020008B8020008000000000B
:10050000084B09485968826F890D01F03D0110B50B
:100510008C05DC600AB1C06F9047BDE81040FFF762
:10052000BFBF00BF00640240B80900200000000007
:10053000084B09485968026F090C01F03D0110B5DC
:100540000C04DC600AB1406F9047BDE81040FFF733
:10055000A7BF00BF00640240B809002000000000EF
:10056000084B09485968826E890901F03D0110B5B0
:100570008C01DC600AB1C06E9047BDE81040FFF707
:100580008FBF00BF00640240B809002000000000D7
:1005900008B5074B07485968026E01F03D01D96064
:1005A0000AB1406E9047BDE80840FFF779BF00BF31
:1005B00000640240B80900200000000000000000B4
:1005C000084B09481968826D890D01F03D0110B58D
:1005D0008C059C600AB1C06D9047BDE81040FFF7E4
:1005E0005FBF00BF00640240B809002000000000A7
:1005F000084B09481968026D090C01F03D0110B55E
:100600000C049C600AB1406D9047BDE81040FFF7B4
:1006100047BF00BF00640240B8090020000000008E
:10062000084B09481968826C890901F03D0110B531
:100630008C019C600AB1C06C9047BDE81040FFF788
:100640002FBF00BF00640240B80900200000000076
:1006500008B5074B07481968026C01F03D01996025
:100660000AB1406C9047BDE80840FFF719BF00BFD2
:1006700000640240B80900200000000000000000F3
:10068000084B09485968826B890D01F03D0110B58E
:100690008C05DC600AB1C06B9047BDE81040FFF7E5
:1006A000FFBE00BF00600240B8090020000000004B
:1006B000084B09485968026B090C01F03D0110B55F
:1006C0000C04DC600AB1406B9047BDE81040FFF7B6
:1006D000E7BE00BF00600240B80900200000000033
:1006E000084B09485968826A890901F03D0110B533
:1006F0008C01DC600AB1C06A9047BDE81040FFF78A
:10070000CFBE00BF00600240B8090020000000001A
:1007100008B5074B07485968026A01F03D01D960E6
:100720000AB1406A9047BDE80840FFF7B9BE00BF74
:1007300000600240B8090020000000000000000036
:10074000084B094819688269890D01F03D0110B50F
:100750008C059C600AB1C0699047BDE81040FFF766
:100760009FBE00BF00600240B809002000000000EA
:10077000084B094819680269090C01F03D0110B5E0
:100780000C049C600AB140699047BDE81040FFF737
:1007900087BE00BF00600240B809002000000000D2
:1007A000084B094819688268890901F03D0110B5B4
:1007B0008C019C600AB1C0689047BDE81040FFF70B
:1007C0006FBE00BF00600240B809002000000000BA
:1007D00008B5074B074A196801F03D019960136895
:1007E0000BB150689847BDE80840FFF759BE00BFFD
:1007F00000600240B8090020000000000000000076
:100800000E4B0F4A5B68C168F0B48768566F426848
:10081000D0E90445DB1B9B1BE41845F1000593421E
:10082000026888BF436001319342C0E90445C1605A
:10083000836038BF0360F0BC704700BF001000E069
:100840004808002000000000000000000000000038
:100850000E4A1068036830B4012194695A6000257B
:1008600080F82010A1681360906184F8205000E0A7
:100870001B689A689142FBD35A68626023602146E4
:1008800014605C6030BCFFF705BD00BF4808002065
:10089000F0B54B1C87B04CD0404C2546A36905935E
:1008A00055F81C3F02294FF0804E074638BF022101
:1008B0003B48DEF824200490AB425AD0A06A121ABA
:1008C00089189A6831D291423CBF4018CEF8340062
:1008D000914204D91B68891A9A688A42FAD35A68E5
:1008E000029201AE019316605E6003919A68511AFC
:1008F0004FF0FF32996062623846FFF751FD049B6A
:100900007BB1E369B3421BD0029A019B1360019B48
:100910000021AB425A60049103D09A6803990A44BB
:100920009A60A369586A07B0F0BD1B68891A9A6873
:10093000CEE71A4CFFF734FDA369586A07B0F0BD43
:10094000019AE2610023AA425560049322D0936881
:100950000398A16A03444FF080459360686A421A85
:100960009342DED99B1A022B2CBFC318831C6B63E6
:10097000D7E7A262881801AE0022022301950295F2
:100980000391E6612662CEF83400CEF81020CEF84E
:100990000C30B1E74FF08042D360C2E74808002036
:1009A000210300080000000000000000000000001B
:1009B00061B1084B10B4024644689B69042083E887
:1009C00014002360536010BCFFF762BF4FF0FF308C
:1009D000704700BF48080020000000000000000031
:1009E0002DE9F04F994683B004460D461646D0F8DF
:1009F0001C80202383F311884FF080420027526A25
:100A0000009309EB0203019309F1FF3BBA46A36887
:100A1000FBB16269A368511C013B6161A3602B7843
:100A20001370236962699A4224BFE36863610135E8
:100A3000B8F1000F01D02046C0478AF31188013E6B
:100A400007F1010717D0009B83F31188A368002BDF
:100A5000DFD11BF1030F12D84FF08042516A019A87
:100A6000511A894505D32046FFF7A2FF0028CED0B2
:100A7000002383F31188384603B0BDE8F08F494660
:100A80002046FFF795FF0028C1D0F1E700000000E5
:100A90003030FFF7A5BF00BF0000000000000000DD
:100AA00030304FF0FF33FFF79BBF00BF0000000066
:100AB000F8B504460F461646202383F3118803E059
:100AC000FFF776FF002819DBA56831462046002D88
:100AD000F6D06269A368511C013B6161A360177085
:100AE000236962699A4224BFE3686361E3690BB1D9
:100AF00020469847002080F31188F8BD85F31188BF
:100B0000F8BD00BF00000000000000000000000071
:100B10003030FFF7CDBF00BF000000000000000034
:100B200030304FF0FF32FFF7C3BF00BF00000000BE
:100B30002DE9F04F994683B004460D461646D0F88D
:100B40001C80202383F311884FF080420027526AD3
:100B5000009309EB0203019309F1FF3BBA46A36836
:100B6000FBB1A269A368511C013BA161A36013788A
:100B70002B702369A2699A4224BFE368A3610135FF
:100B8000B8F1000F01D02046C0478AF31188013E1A
:100B900007F1010717D0009B83F31188A368002B8E
:100BA000DFD11BF1030F12D84FF08042516A019A36
:100BB000511A894505D32046FFF7FAFE0028CED00A
:100BC000002383F31188384603B0BDE8F08F49460F
:100BD0002046FFF7EDFE0028C1D0F1E7000000003D
:100BE0000C30FFF7A5BF00BF0000000000000000B0
:100BF0000C304FF0FF33FFF79BBF00BF0000000039
:100C000070B5202304460E4683F3118803E0FFF7F6
:100C1000CFFE00281ADBA56831462046002DF6D00D
:100C2000A169A36820694A1C013B8242A360A261BA
:100C300028BFE3680D7828BFA361E3690BB12046A4
:100C40009847002383F31188284670BD85F31188E7
:100C500070BD00BF000000000000000000000000A8
:100C60000C30FFF7CDBF00BF000000000000000007
:100C70000C304FF0FF31FFF7C3BF00BF0000000092
:100C800000228168084B10B4044680F820201B68BD
:100C90009A688A42FBD25A686260236020461460D8
:100CA0005C6010BC704700BF4808002000000000D6
:100CB000F8B5224B1A6800211960930636D5204CEE
:100CC000E16A0A685368002B30D02569002D2DD0C9
:100CD000136823F01F031360136813F00103FBD1A3
:100CE0000F7A4E68AD68A26A3D20B840012130609D
:100CF000536093609160EDB1052323701048A847BD
:100D00002378052B04BF02232370002323612023B3
:100D100083F31188606930B14FF0FF3343620023E1
:100D20006361FFF7ADFF002383F31188BDE8F8404E
:100D3000FFF7B6BB022325612370E8E700200140DE
:100D4000000800200000000000000000000000007B
:100D500011F00C0F2DE9F041044634D0C06A03684D
:100D60001A6822F01F021A60196811F00101FBD104
:100D70002269077A46689568A36A3D22BA40012035
:100D80003260596099609860002D34D0052323703B
:100D90002046A8472378052B04BF02232370002395
:100DA0002361202383F3118863693BB100214FF055
:100DB000FF32616118465A62FFF762FF002383F336
:100DC0001188BDE8F08105699DB18A060FD52B78A1
:100DD000F3B16B686BB1C268012A4AD96D88846827
:100DE0005208510005FB0141BDE8F0411847CB0610
:100DF00005D4BDE8F081022325612370D1E76B683B
:100E0000002BF6D0C26881685208BDE8F04118474F
:100E1000C06A0268136823F01F031360136813F09D
:100E20000103FBD1077A46686D68A26A3D21B9408B
:100E300001203160536093609060ADB10423237052
:100E4000E268A1682046A8472378042B0CD0202311
:100E500083F311886369002BB0D0002262611846C9
:100E60005A62FFF70DFFA9E70222002322702361D7
:100E7000EDE78168BDE8F041184700BF00000000C1
:100E800038B52022034682F31188104A9469A06A7B
:100E9000636204F12805854206D00368A362FFF768
:100EA000EFFEA06AA842F8D194F8223043B994F832
:100EB00021309B0704D1636922691A612269536159
:100EC0000F20BDE83840FFF76BBA00BF480800208C
:100ED000FEE700BF0000000000000000000000006E
:100EE000F0B5124F124D134C134B144907F1800EFD
:100EF00000269C4211D904391A4651F8040F42F8D1
:100F0000040B9442F9D8DA43144424F00304043463
:100F100023449D4203D943F8046B9D42FBD810370C
:100F2000774502D297E83A00E3E7F0BD701F00086A
:100F3000C00A0020C00A0020C00A00203C2100088E
:100F4000FEE700BF000000000000000000000000FD
:100F5000704700BF0000000000000000000000001B
:100F6000704700BF0000000000000000000000000B
:100F7000024AD36843F08003D360704700440040C6
:100F8000704700BF000000000000000000000000EB
:100F9000704700BF000000000000000000000000DB
:100FA00008B50B4B1878DA6800210428116107D1C5
:100FB0000220187011601161D16821F0FF01D16029
:100FC0005B6803485B689847BDE80840FFF768BA6C
:100FD00034080020000000000000000000000000B5
:100FE0002DE9F8434FF0804633699B0703D4BDE8F1
:100FF000F843FFF755BA00253561202787F311889C
:101000001B4C716AE369A26AD3F808E0881A70453C
:1010100004F11C0819D31968D3F80C9072444145A7
:10102000A262C1F80480E161DD6008BFF56085F36C
:1010300011881869C84787F31188E369716AA26A41
:10104000D3F808E0881A8645E5D9434508D07244AC
:10105000521A4FF08043022A2CBF8A188A1C5A6306
:10106000002383F31188BDE8F843FFF719BA00BFE6
:101070004808002000000000000000000000000000
:101080002DE9F043694D6E6FD6F80C903368DA05A0
:1010900083B09CB200F18280202383F3118814F086
:1010A0002F0F49D0624F4FF0000807E0A106736888
:1010B0001CD43468A4B214F02F0F3DD02307F5D010
:1010C00014F0080F0CBF00208020E10748BF40F05B
:1010D0002000A20748BF40F04000630748BF40F42B
:1010E000807000F0FDFCA1067368E2D56A6995F88E
:1010F0007840002A41D02A6A696A8A4246D06969E2
:101100002340501C01312862696113702A6AEB691F
:101110009A4201D3AB692B62EB68BB42C9D01A6813
:10112000EA6018465760C3F82480FFF7A9FD3468C9
:10113000A4B214F02F0FC1D1002383F3118819F04A
:10114000800F01D0220637D4630611D5202383F304
:1011500011886A6CAB6C9A4253D04FF6BF7309EAA0
:1011600003036FF04002F3600023326083F31188C1
:1011700003B0BDE8F043FFF793B90420019300F0FA
:10118000AFFC2A6A696A019B8A42B8D16969002961
:10119000B5D04FF4806000F0A3FC8AE7202383F3EE
:1011A00011884FF4007000F09BFC6FF48073336083
:1011B000002383F311886FE7202383F31188AB6C3E
:1011C0006A6C9A4224D0AA6B296C581C0132AA631B
:1011D000A86488421F7801D3EB6BAB642B6B154A74
:1011E000934209D0196829634FF0000E4A601846EF
:1011F000C3F824E0FFF744FD7760002383F31188F0
:10120000A2E7AB6B002BA8D0102000F069FCA4E78C
:10121000AA6B002AD7D0082000F062FC4FF63F737B
:1012200009EA030343F04003F360E6E7440A0020C1
:10123000500A0020740A0020000000000000000096
:101240002DE98048734C87B0002504F11C024FF053
:10125000FF3368460026002724606460E261226252
:1012600063620093CDE9046724616461A560A562AF
:10127000656701950295039500F02AFC6846FFF723
:10128000BFFA654B654966481860664A664808605B
:10129000664911606649674ECA6867690298DFF857
:1012A000C4E160674FF6FF0C02EA0C02164380228D
:1012B000A263E266C4F848E004F1300003F1100EC6
:1012C000012284F8515065669D616764C3F810E09F
:1012D000C3F814E084F85220A56624643861564FA0
:1012E000CE60FE689D6046F08076FE60534EDD6005
:1012F00004F1580704F15C0384F850206061A06198
:10130000A765E564E365236633681027134320204F
:101310003360CF7781F8220085F3118862B680F3BD
:101320001188474B6069C3F89820C3F8CC2083F834
:10133000B2204449444F454ED96603F16C02C3F8CC
:101340009C2003F19001022283F8B020C3F8A4008E
:1013500083F8B150C3F8C450C3F88C70C3F8A860C8
:101360001D67C3F8C850C3F8A040C3F8AC30016192
:10137000A269C3F8B4509068616103F1BC0603F13F
:10138000B807C3F8B870C3F8BC60C3F8C0600028E1
:1013900000F0108383F8B0502468A268002AFBD1C3
:1013A000C3F890406068C3F894000160616082F304
:1013B0001188274B274C19694FF0FF3119611A61C9
:1013C000586959615A61186A60F0805018621A624F
:1013D000586A59625A62196C41F080511964216847
:1013E00041F480712160196F01F44071B1F5007F03
:1013F00003D04FF4803119671A67164C1649636899
:10140000164D23F400736360154C002003462060E2
:101410002CE000BF4808002098090020400A002066
:10142000E10200083C0A0020C00A002000800120E0
:1014300000ED00E00003FA05F0ED00E0001000E030
:10144000C008002091030008A50200080021000840
:101450000038024000700040FC1F0008106002408D
:10146000380A0020D820000851F80C5CCD482B60C9
:1014700040F832300132102A01F10C01F4D1CA4F88
:10148000CA4ECB49DFF84893DFF85883C94DCA4CA0
:10149000DFF854C3DFF854E3DFF854B34FF0FF3004
:1014A000B860F860B060F0600E6BC44F46F01F0685
:1014B0000E63D1F850A0C24E4AF01F0AC1F850A0E6
:1014C0006FF48A6AC9F80430C9F808A0C9F80C603A
:1014D0004FF4EE4A4FF6DF76C9F81460C9F820A041
:1014E0004FF42A26DFF80CA3C9F82460C9F800A03D
:1014F0004FF055364FF6FF794FF0800AC8F80430A8
:10150000C8F80800C8F80C60C8F81490C8F8203073
:10151000C8F82430C8F800A0DFF8DC826360A0605F
:10152000C4F80C80C4F81490236263622360CCF882
:101530000430CCF80800CCF80C60CCF81490CCF84F
:1015400020306B60CCF82430AB60CCF80030EB601E
:10155000CEF804302B61CEF808006B61CEF80C6039
:10156000CEF814902B62CEF82030CEF82430CEF88E
:101570000030AEF5704ECBF80430DFF88082C5F84D
:1015800028E0DFF87CC2DFF87CE28E4CCBF8080064
:101590008D4EC5F82CE0CBF80C80CBF81490CBF82E
:1015A0002030C5F830C005F1180CCBF824304FF0CE
:1015B000010EC5F818C04FF48029CBF800304FF069
:1015C0006008C5F81CC0DFF840C285F800E087F865
:1015D0001283C7F88091C7F80090C6F80CC0636109
:1015E00086F800E0A263D1F840C0DFF82082DFF87F
:1015F0002092736022464CEA0E0C42F8049BC1F81C
:1016000040C0D8F808C062604CEA0E0C4FF080422F
:1016100084F808E0A362E4622465C8F808C042F2D6
:10162000CF08C2F8288004F10C0904F1740CDFF82B
:10163000E481D062DFF8E0B1936104F16400C4F8A2
:1016400040C0536304F1540CC4F87480C4F80C9087
:1016500004F13008C4F810904FF08059E061E06365
:10166000A0646064C4F84CB0C4F818C0C4F824C0C6
:10167000C4F820C0C4F83080C4F834802020D3607F
:101680005360C2F814E0C2F800E087F81CA3C7F862
:101690008091C7F8009080F311883078DFF87CE102
:1016A000C6F804E0012800F06D81B368474A5B0981
:1016B000A2FB0323DB09013B9BB2434A424ED168A4
:1016C0002020002202270A60486037708B620A617E
:1016D000CA6082F3118880F311882B786A60012B2D
:1016E00000F0DB8002232B704FF0000888F3118894
:1016F000032210213648FEF76BFE4FF0200C8CF3CE
:1017000011884FF0030EEA6A2B6B85F800E012682F
:1017100030492961304FAF60012143F48073E960A3
:10172000D760516013601068AB6ADFF8F4902B4DFE
:10173000084310604FF4C042C3F80080C3F80C8027
:101740001A610422C3F82C80C3F830805A63C3F8AE
:1017500004909D6088F311888CF311881A4B1A4805
:101760005A68DB68526880F800E06420D8625961EA
:10177000C3F82480C3F8108012B1DA680A43DA6033
:1017800085221A60002383F31188202383F31188B4
:10179000237A012B00F0E880636F114A934200F036
:1017A000DF803FE0B8090020006002400064024092
:1017B00000380240000800200008024000E100E07C
:1017C00005511564440A002034080020C55A7C0ADB
:1017D00000000240B0200008440800200103001C63
:1017E0000010014000040240000C024000100240C2
:1017F000001C0240A004802A5555550150555555EE
:10180000162C02008020000800080040002004E0A0
:101810001421000800440040710F0008F020000867
:101820000001000402F58062934200F0998041F2C9
:1018300017129A604FF04008012042F22C1100224A
:10184000C3F810805861D960FF201A6002211D681A
:101850005B6884F87800217282F3118840F20242BA
:1018600020215648564E574DFEF7B2FD414640F2F4
:1018700002425248FEF7ACFD20247A8831462846C1
:1018800000F066F984F311884FF47A710820FEF7AE
:10189000FFFF002383F31188EFE74B4AE96A1068E2
:1018A0004A7A9340034245D1484E06EBC207464E62
:1018B0007D6003433360454E454846F8320013F0DF
:1018C000FF0F04D04348026B42F40012026313F48A
:1018D0007F4F04D03F4A136B43F4800313630A68BD
:1018E000136823F01F031360136813F00103FBD187
:1018F00091F808E04E683D2000FA0EF02127306094
:1019000013605761897A4B099B0001F1604703F12D
:10191000604303F5614307F5614701F01F010120B2
:1019200000FA01F14FF0600E87F800E3C3F8801170
:10193000196000E00A682749274B93604B6C2748E1
:10194000AA6A43F480734B64436803F440030021A4
:1019500043F4803301274360516091609760C1E692
:1019600042F22E229A6065E71A481D4B026C402114
:10197000C02542F40032026483F82653C3F8841170
:10198000596009E7086C174EDFF85CE0C6F808E01C
:1019900040F004000864086A4FF0700E40F0040044
:1019A00008620B6287F81EE340F24733C7F88021D4
:1019B0003A6082E682F82000FEE700BF000C024099
:1019C00008210008440A0020380A0020B809002035
:1019D000510D0008003802404C2001400023014016
:1019E00000E100E03408002000BD01050000000017
:1019F0002E4A2F4B4FF080504FF400411064196075
:101A0000136843F00103136013689807FCD59368CB
:101A1000264923F003039360936893608B6813F067
:101A20000C03FBD10868214A00F0F90008608B60C4
:101A30004B6F43F001034B67536F9907FCD51D4B68
:101A4000536013681A4943F0807313604B685A045B
:101A5000FCD5164A13689B01FCD5174B17499160BA
:101A60001A68174B9A4216D0164B40F202721A604F
:101A70000E4A936843F002039360936803F00C03EB
:101A8000082BFAD1536C43F480435364536E43F4F0
:101A90008043536670470C4A0C4B12689A42E3D15C
:101AA000084B4FF481721A60E2E700BF0038024031
:101AB0000070004010540107002004E00010883836
:101AC00011640020003C024000ED00E041C20F41E3
:101AD000014B5B6883607047001000E0000000006D
:101AE000F8B5174F57F8044FBC4221D005460026E1
:101AF00002E02468BC421BD0E3682B43E36015B1CD
:101B000022691342F5D06068A368416B90F82020E9
:101B10000B430A2A43630CD00B2AEAD1426A32EA09
:101B20000303E6D14662FFF7ABF82468BC42E3D179
:101B3000F8BD426A1342DCD04662FFF7A1F8F4E731
:101B4000440A002000000000000000000000000027
:101B50000EB42DE9F04F86B010AE0023774D784CCF
:101B6000029600934FF05A0A009A2B6873489B68BC
:101B7000514601320092984794F800A027467C1CF9
:101B8000BAF1000F00F03181BAF1250FECD17A786B
:101B90002D2A03BFBA78BC1C4FF0010C4FF0000C8B
:101BA000302A04BF6278013404F101010CBF4FF008
:101BB00030094FF02009002405E03378043611F88D
:101BC000012B03EB4004A2F13003DBB2092B0F46DB
:101BD00004EB8400F3D92A2AEFD02E2A4FF000011B
:101BE00043D002F0DF034C2B4ED0A2F14400342846
:101BF00000F24481DFE810F0140142014201420189
:101C000042011401420142014201420142017D01AF
:101C1000420142014201420142015101420142019D
:101C2000800142014201420142014201420142015E
:101C3000420142014201FF001401420142014201FE
:101C400042011401420142014201420142017D016F
:101C50004201420142018D00420151014201420113
:101C600080013378043603EB400117F8012BA2F111
:101C70003003DBB2092B01EB8100F4D92A2AF0D022
:101C800002F0DF034C2BB0D197F800A0BAF1000F9F
:101C900003D05246013797F800A0A2F14403342B39
:101CA00000F2EE80DFE813F0BE00EC00EC00EC0088
:101CB000EC00BE00EC00EC00EC00EC00EC002B01B2
:101CC000EC00EC00EC00EC00EC003101EC00EC006E
:101CD0002E01EC00EC00EC00EC00EC00EC00EC0061
:101CE000EC00EC00EC00A900BE00EC00EC00EC0005
:101CF000EC00BE00EC00EC00EC00EC00EC002B0172
:101D0000EC00EC00EC003700EC003101EC00EC00E2
:101D10002E0197F800A0D6F800800436B8F1000F25
:101D200000F01C8198F80030002940F0F180002B71
:101D300000F0F38047F6FE73424605E0440A0020B7
:101D400009210008013B03D412F8011F0029F9D131
:101D5000A2EB0802531EA41A01934FF0200959D494
:101D6000BCF1000F40F09580C4F1000B002C00F096
:101D70008F8098F800102D2900F0D5802B684946F7
:101D80009B68284698471BF1010BF7D1009B234421
:101D90000093019B002BA8BF5C46FFF6F0AEDDF878
:101DA00004B02B6818F8011B9B680BF1FF3B284619
:101DB0009847BBF1FF3FF4D1009B019A01331A44CD
:101DC0000092002C3FF4DBAEA0462B6849469B688E
:101DD00028469847B8F10108F7D1009B23440093A7
:101DE0007C1CBAF1000F7FF4CFAE009806B0BDE8BE
:101DF000F04F03B0704797F800A033680DF1180852
:101E0000043608F80C3D0023019301224FF020090D
:101E1000A41AA5D5019B002BA8BF0024BFDAAEE60B
:101E200097F800A03168002906F10406C0F28C8002
:101E30000DF10C08424602F10B03019318464A4B80
:101E4000A3FB01E3DB0803EB830B9E46A1EB4B03F3
:101E50003033DBB2714600F8013D0029EFD1019922
:101E6000091A114401E010F8013F02F8013B8A42CF
:101E7000F9D1A2EB0802531E0193C9E797F800A01D
:101E80000DF11808002308F80C2D01930122BFE77B
:101E90005C46019B002B82DA93E74FF00A0897F823
:101EA00000A032680DF11701043600E00146B2FBD4
:101EB000F8FE08FB1E2202F13003392BC8BF02F1E5
:101EC0003703DBB2724601F8013C481E002AEDD10F
:101ED0000DF117020DF10C08121AC646104401E06C
:101EE00011F8013B0EF8013B8842F9D1531E0193D2
:101EF0008EE74FF00808D2E74FF01008CFE74FF019
:101F00000808CEE74FF01008CBE74FF00A08C8E703
:101F10001BB14B1E00297FF40FAF4FF0FF3301932D
:101F20004FF020091CE7B9F1300F7FF427AF2A6882
:101F3000284692689047009B01330093019B013B28
:101F400008F10108019319E74FF02D038DF80C30CB
:101F500049420DF10D020DF10C086CE7DFF80C8021
:101F600000293FF4E7AED4E7CDCCCCCC3421000837
:101F70003C210008C00A0020C00A0020C00A00203E
:101F80003C210008000000000000000000000000EC
:101F90003C210008000000000000000000000000DC
:101FA0003C210008000000000000000000000000CC
:101FB0003C210008000000000000000000000000BC
:101FC0003C210008000000000000000000000000AC
:101FD0003C2100080000000000000000000000009C
:101FE0003C2100080000000000000000000000008C
:101FF000106002400860024000000B0028600240B0
:102000000860024006010C00406002400860024087
:1020100010020D00586002400860024016030E00D6
:10202000706002400C60024000040F0088600240B3
:102030000C60024006051000A06002400C600240E7
:1020400010061100B86002400C60024016072F0015
:10205000106402400864024000083800286402400E
:1020600008640240060939004064024008640240E6
:10207000100A3A005864024008640240160B3B0004
:10208000706402400C640240000C3C008864024012
:102090000C640240060D4400A06402400C6402403F
:1020A000100E4500B86402400C640240160F460052
:1020B00001000100910F0008810F000800000000DE
:1020C0000000001C00000000006000000000000094
:1020D00000000000040000006D61696E0016002021
:1020E000040444080C1014181C20212200000000D5
:1020F000A086010000000000200000000000000099
:1021000069646C65000000005A6E6163683A2025BE
:10211000640A0D00A10A0008F10B0008210B000859
:10212000710C0008110B0008610C0008910A0008EE
:0C213000E10B0008286E756C6C290000A3
:04000005080001C12D
:00000001FF
